:400000000080002011000000BD060000BD06000008B5044B1A6803F53F5302331A6000F055FB00BFFA46004010B5054C237833B9044B13B10448AFF300800123237010BDA1
:400040004881FF1F000000000C220000084B10B51BB108490848AFF300800848036803B910BD074B002BFBD0BDE81040184700BF000000004C81FF1F0C220000C880FF1FA6
:40008000000000000000000008B5294A13780133DBB21370182B45D1134600221A70588804283FD901F01AFC0022224B01F07CFC02460B461CA1D1E9000101F09FFD01F031
:4000C00085FE80B21A4B988000225A801A4B1B88C01A0530372801D9154A938014498A88154B5B889B1A1BB2CB80052B03DD124881880231818013F1050F03DA0E498B888B
:40010000023B8B800C4B9B88FF2B02D9FF210A4B9980094B9B88EA2B02D8EB21064B9980054B1A8008BD00BF0000000060E356416481FF1F00C03240CC80FF1F024A538880
:4001400001335380704700BF6481FF1F0000000010B51D4B1B781D4C238901332381A389638100F079FB80B2A0816389C01A80B203B2E381002B01DA4042E081134CB4F985
:400180000E0001F0ABFB0022114B01F00DFC01F03DFE206101F0B4FB09A3D3E9002301F02DFD01F033FE0B4901F034FF606101F0CDFF80B2084BA3FB00308008208310BDCC
:4001C0007B14AE47E17A843F636400406481FF1F0080164000009641ABAAAAAA000000002DE9F84362B600F085FF00F091FF01F0D3F801F0DFF800F021FB01F009F800F02E
:4002000077FC01F067F900F099FD0021084600F0A3FD00F049FB00F0E1FB01F0C5F9404800F06EFB3F4800F001FC3F4801F0E4F9962001F017F900252C46012001F0C2F802
:4002400001F0D2F8C0B2394B9876DB7E984201D9364BD876354BD87E01F040FB804689462BA3D3E9002301F09FFB06460F462AA3D3E900234046494601F096FB02460B4697
:400280003046394601F0DCF901F0A0FDC0B201F0E9F8274B187900F0F3FB0134254B9C4202D10024214BDC7601354CF250339D42C3D10021084600F04FFD1F4E304600F0B0
:4002C000E3FC0021084600F047FD184D288B00F061FD0421002000F03FFD184800F0D4FC0021012000F038FD304600F0CDFC0021012000F031FDA88800F04CFD07210120DD
:4003000000F02AFD0E4800F0BFFC002595E700BF8FC2F5285C8FF23F295C8FC2F528CC3F510100003D010000890000006481FF1FCC80FF1FA0860100102200002422000098
:400340002C220000FEE700BFF0B40022174611E050F82760F3B226F0FF0608E001EB420511F812406D78A5550132013BDBB2002BF4D10137222FEBD9F0BC704708B50A46EA
:40038000002101F03AFF08BDF8B5254B1B78DBB2244E3478E4B2244F3D78EDB203F00701224A11701B090132137044F00303337045F003033B704A221D4B1A7080212F338F
:4003C0001970202231331A7040231A48037002300370063003700230037000F21510017015490B7068310A7001200B31087035310B7004310A704C310B70104B1A7002233E
:4004000008310B7003310A700D4A13700A2000F085FD3D70347044220A4B1A70F8BD00BFCF010049F8460040F94600406E5800400D51004001590040285A0040235B004006
:40044000585B00407658004008B501F0CBFE08BD38B501223C4B1A8018233C4A1370022502321580023213700824023214801C21023211700D2102321180023213702F2143
:40048000023211800232137040F2AF41023211800232137040F65F11023211800232137004222B492B48FFF7CFFF2B4B1D704FF040231C70032203F500731A70274B1B78DF
:4004C000DBB2274A1370274B1C8041F25122023B1A80002419250CE0234B1B7803F0010343EA440404F003044FF4F07001F094F8013D0DB1032CEFD115B90320FFF722FF27
:400500001A4B4FF480721A8007221A70002218490A704820023108701A700222033B1A7004220A331A70134A137843F07F031370013A137843F001031370013A137843F0C8
:400540008003137038BD00BF804000408240004014060048004100400043004008010049A146004022420040254200400440004006400040A243004070B572B6384A13780C
:4005800043F00403137000240CE0364D630019194A0011462A44084691882858FFF7EEFE0134E4B2062CF0D92F494FF09040FFF7CBFE40F203222D4B1A8002F1804202F55D
:4005C000A732137843F0020313701032137843F002031370264C237843F040032370A2F58632513A137843F010031370082221492148FFF729FF082220492148FFF724FFE0
:40060000082220492048FFF71FFF08221F492048FFF71AFF08221F491F48FFF715FF08221E491F48FFF710FF08221E491E48FFF70BFF1E4A137843F0080313701C4E012567
:400640003570FFF705FF812333701A4B1D70FFF79BFE0E2221461848FFF7F6FE70BD00BFE8460040342200008C0000484C580040A0430040DC05004802510040E4050048BA
:40068000C2510040EC05004812510040F405004822510040FC0500483251004004060048425100400C06004862510040224300400048004004000840B043004008B501F03F
:4006C00065FD03680C2B00D1FEE7FEE708B5104E104D16E029686B68AC68002204E051F8040B43F8040B0432A242F8D1E868002203E0002143F8041B04328242F9D1103511
:40070000013E002EE6D101F047FDFFF769FDFEE7010000009C22000008B5104A104B1A60104A136843F40073136000230AE0032B03D80D4A52F8231000E00C490C4A42F8D3
:40074000231001332F2BF2D90A4B1A780A4B1A70074A0A4B1A60FFF70FFF08BD0004FA050CED00E014ED00E000000000BD0600000080FF1FBC760040C080FF1F08ED00E07B
:40078000024A137843F080031370704775650040014B1870704700BF05650040014B1870704700BF45650040014B1870704700BF25650040014B1870704700BF85650040A8
:4007C000014B1878704700BF65650040014B1878704700BF5565004008B501E0FFF7F6FFFFF7EEFF10F0100FF8D108BD10B5114A137803F0C00343F0090313700E4C237820
:4008000043F001032370FF20FFF7C2FFFF20FFF7C5FF7F20FFF7C8FF0020FFF7CBFF00F003FF237843F01003237000F001FFFFF7D3FF10BD756500409565004008B5054BB7
:400840001B7823B9FFF7D2FF0122024B1A70FFF797FF08BDEA81FF1F08B500F0E7FAA0F5004000B208BD00BF024B187800F00F00704700BF6A650040014B1870704700BF2A
:400880008A65004008B50F20FFF7F6FFFFF7ECFF00F0CAFE034A137843F01003137000F0C7FE08BD9A65004008B500F011FB4FF4004000F0B5FA044B1B7813B90122024B46
:4008C0001A70FFF7DFFF08BDEB81FF1F014B1B689864704708ED00E04001C0B2014B1870704700BF02E400E00422014B1A60704700E100E00422014B1A60704780E100E0E9
:4009000010B50446FFF7F6FF2046FFF7DFFF0720FFF7E2FFFFF7E8FF10BD00BF024A137843F080031370704773640040014B1870704700BF83640040014B1878704700BF7B
:4009400063640040014B1880704700BF04680040014B188880B2704784680040014B1880704700BF44680040014B1880704700BF6468004008B501E0FFF7EAFFFFF7DCFF6F
:4009800010F0400FF8D108BD08B5124A137803F0F80343F001031370137803F0FC031370FFF7E8FFC820FFF7D9FF0020FFF7CAFF0C20FFF7BBFFFFF7BFFF8020FFF7D4FFA3
:4009C00000F032FE044A137843F01003137000F02FFE08BD736400409364004008B5054B1B7823B9FFF7D0FF0122024B1A70FFF795FF08BDEC81FF1F014B1B68D86470472E
:400A000008ED00E04001C0B2014B1870704700BF03E400E00822014B1A60704700E100E00822014B1A60704780E100E010B50446FFF7F6FF2046FFF7DFFF0720FFF7E2FF9B
:400A4000FFF7E8FF10BD00BF054A137843F0080313701032137843F008031370704700BFA8430040054B1A7802F0FD021A701A7800F0020010431870704700BF2C5800404D
:400A8000014B1870704700BF835B0040064B1B78C3F3810303F19243063393F83831DBB2024A1370704700BF2C5800400B46004008B5064B1A7802F0F3021A701A7800F000
:400AC0000C0010431870FFF7E1FF08BD2C58004008B50023054A1370013213700420FFF7E7FF0220FFF7BEFF08BD00BF2C58004008B5074B1B7823B9FFF7EAFF0122044B5C
:400B00001A70FFF7A1FF6420FFF7BAFF08BD00BFED81FF1F10B50B4C237803F09F032370237803F0F00323702378184340F010002070012000F0F2F9237803F0EF0323708A
:400B400010BD00BF2051004038B505460E4C237843F020032370237803F0BF032370002000F0DCF9237803F0F003237023781D4345F010052570012000F0D0F9237803F004
:400B8000EF03237038BD00BF2051004070B5354B1A7802F08002D2B21A7033490A7802F0F00242F00F020A7001310A7802F0F0020A7001310A7802F0F0020A701A7802F04B
:400BC000DF021A701A7842F040021A704FF4CA76002000F0A3F9234D2B7843F010032B70012000F09BF9214B1C78E4B22B7803F0EF032B70002000F091F904F00804E4B249
:400C00002B7843F010032B70012000F087F92B7803F0EF032B7014B90A2000F07FF9013E0CB1002ED4D10F4A137803F0BF031370137803F08003DBB213700232137803F06F
:400C4000F00313700132137803F0F00343F00F0313700132137803F0F00343F00F03137070BD00BF20510040225100402151004010B50446FFF78AFF2009FFF765FF04F01F
:400C80000F00FFF761FF10BD38B505460078012404E0FFF7EDFF285D0134E4B20028F8D138BD00BF10B50446FFF770FF2009FFF731FF04F00F00FFF72DFF10BD08B52820B8
:400CC00000F016F90320FFF725FF052000F010F90320FFF71FFF0F2000F00AF90320FFF719FF012000F004F90220FFF713FF052000F0FEF80620FFF7D5FF0E20FFF7D2FFE8
:400D00002C20FFF7CFFF0820FFF7CCFF0120FFF7C9FF0C20FFF7C6FF0320FFF7C3FF052000F0E6F808BD00BF08B50C20FFF7BAFF0122014B1A7008BDEE81FF1F08B5054BB2
:400D40005B7823B9FFF7BAFF0122024B5A70FFF7EBFF08BDEE81FF1F08B5032819D8DFE800F002070D1381F08000FFF79BFF08BDA1F14000C0B2FFF795FF08BDA1F16C0019
:400D8000C0B2FFF78FFF08BDA1F12C00C0B2FFF789FF08BD10B584B000238DF80E30092211E0144BA3FB0013DB081C4603EB83035900431ADBB2303304A9114401F80C3C58
:400DC0002046013AD2B20928EBD80A4BA3FB0013DB0803EB83035900431ADBB2303304A9114401F80C3C01AB9818FFF74DFF04B010BD00BFCDCCCCCC024A137843F08003F8
:400E0000137070477A650040014B1870704700BF89650040014B1878704700BF69650040014B1880704700BF106A0040024B1B78024B188880B2704708650040906A0040D0
:400E4000014B188880B27047906A0040014B1880704700BF506A0040014B1880704700BF706A004008B501E0FFF7EAFFFFF7D2FF10F0400FF8D108BD08B5134B1A7802F0DB
:400E8000F8021A701A7802F0FC021A70FFF7EAFF4FF40040FFF7DAFF4FF40040FFF7C0FF0020FFF7B1FFFFF7B5FF4FF40040FFF7D3FF00F0B9FB054A137843F01003137037
:400EC00000F0B6FB08BD00BF7A6500409965004008B5054B1B7823B9FFF7CEFF0122024B1A70FFF789FF08BDF081FF1F01BE704710B5044605E0084B186800F08DFBA4F517
:400F00000044B4F5004FF6D8034B586800FB04F000F082FB10BD00BFD480FF1F08B5034B1B7A00FB03F000F077FB08BDD480FF1F70B504460E46074B1D681F2802D900203C
:400F4000FFF7D4FF04F01F04103455F8240045F8246070BD08ED00E038B504460D46072902D90020FFF7C2FF1F2C02D90020FFF7BDFF04F01F0000F1604000F564406D010A
:400F8000EDB2057038BD00BF08B50A280FD00C2802D0082806D102E04FF4805209E04FF4807206E00020FFF7A1FF002201E04FF480620021094B198042F2107303FB02F3FD
:400FC00003F6C413064A82FB0302DB17C3EBE223044A1360044B198008BD00BFF881FF1FAD8BDB68FC81FF1FFA81FF1F10B500F01BFB04461E4A137843F002031370103232
:40100000137843F002031370193A137843F0020313701032137843F00203137002F5AA521932137843F0030313700422114B1A70013B1A7802F0BF021A701A7842F00302E4
:401040001A700822053B1A700222A3F59753123B1A70094A137843F0080313700A20FFF75DFF0122054B1A60204600F0E1FA10BDAB4300400E5900402F5B004080E200E08E
:4010800010B504460A280DD00C2802D0082804D101E0C42207E0442205E00020FFF726FFC42200E08422034B1A702046FFF76CFF10BD00BF0A59004008B5102000F0A2F921
:4010C00007210020FFF748FF07490020FFF730FF064A137843F0060313700820FFF7D0FF0022034B1A8008BD21110000095900400082FF1F08B5054B1B7823B9FFF7DCFFBF
:401100000122024B1A70FFF771FF08BDF181FF1F024A137843F001031370704708590040704700BF084A137843F0040313701032137843F00403137002F5A5521E321378AE
:4011400043F0800313707047A9430040044A137803F0FC0300F0030018431070704700BF0958004010B487B00446194B03AA1868596803C2197A11706A4653F80C0F59685C
:4011800003C21B7A1370082C1ED812490B7803F08003DBB20B70087806AB1C4414F80C3C14F8182C920002F00C02134303430B70094A137803F0F3031370117814F8183CBB
:4011C0000B4343F00C03137007B010BC704700BF602200000A5800400958004008B50C22084B1A70084A137843F0200313708022064B1A700320FFF7B5FF0320FFF7A6FF98
:4012000008BD00BF08580040095800400A58004008B5054B1B7823B9FFF7E0FF0122024B1A70FFF77FFF08BDF281FF1F08B50A280FD00C2802D0082806D102E04FF4805260
:4012400009E04FF4807206E00020FFF74FFE002201E04FF480620021094B198042F2107303FB02F303F6C413064A82FB0302DB17C3EBE223044A1360044B198008BD00BFB3
:401280000C82FF1FAD8BDB680482FF1F0882FF1F38B500F0C9F904461E4A137843F0010313701032137843F001031370193A137843F0080313701032137843F00803137071
:4012C00002F5AA521132137843F0030313700422114B1A70013B1A7842F040021A701A7802F0FC021A70C822053B1A700225A3F597530C3B1D70094A137843F008031370BD
:401300000A20FFF70BFE064B1D60204600F090F938BD00BFAB43004006590040275B004080E200E010B504460A280DD00C2802D0082804D101E0C42207E0442205E0002010
:40134000FFF7D4FDC42200E08422034B1A702046FFF76CFF10BD00BF0259004008B5102000F05AF807210120FFF7F6FD07490120FFF7DEFD064A137843F00603137008200F
:40138000FFF7D0FF0022034B1A8008BD01140000015900400A82FF1F08B5054B1B7823B9FFF7DCFF0122024B1A70FFF771FF08BDF381FF1F024A137843F0010313707047F4
:4013C0000059004010B5074B1B7813F0010401D10028F8D024B10120FFF7A0FD014B1B78204610BD01590040034B1B78034A108800B2181A40B27047A05B00400882FF1F75
:40140000704700BF034B1A7800F0F80010431870704700BF86400040034B1A7800F0F80010431870704700BF8E400040054A137843F0040313701032137843F004031370CF
:40144000704700BFA8430040054B1A7802F0FD021A701A7800F0020010431870704700BF28580040014B1870704700BF825B0040064B1B78C3F3810303F19243063393F8C7
:401480002831DBB2024A1370704700BF285800400A46004008B5064B1A7802F0F3021A701A7800F00C0010431870FFF7E1FF08BD2858004008B50023054A13700132137074
:4014C0000420FFF7E7FF0220FFF7BEFF08BD00BF2858004008B5074B1B7823B9FFF7EAFF0122044B1A70FFF7A1FF6420FFF7BAFF08BD00BFF481FF1F054A137843F0040386
:4015000013701032137843F004031370704700BFA74300400F490B7803F0FC0200F0030313430B7001280AD10B4B1B78DBB20B4A13700B4B1B78DBB2013213707047094BE2
:401540001B78DBB2054A1370074B1B78DBB201321370704742580040120100493446004016010049B1010049B901004908B50120FFF7D0FF0B4B1A7842F020021A701A7851
:4015800002F0FB021A701A7842F008021A7003F295231A7802F0E7021A701A7842F008021A7008BD4258004008B5054B1B7823B9FFF7DCFF0122024B1A70FFF79DFF08BD21
:4015C000F581FF1F014B1B685865704708ED00E04001C0B2014B1870704700BF05E400E02022014B1A60704700E100E02022014B1A60704780E100E010B50446FFF7F6FFFF
:401600002046FFF7DFFF0720FFF7E2FFFFF7E8FF10BD00BF000000000230800803D000BF01380046FCD17047EFF3108072B6704780F31088704700BF81F0004102E000BF95
:4016400083F0004330B54FEA41044FEA430594EA050F08BF90EA020F1FBF54EA000C55EA020C7FEA645C7FEA655C00F0E2804FEA5454D4EB5555B8BF6D420CDD2C4480EA9F
:40168000020281EA030382EA000083EA010180EA020281EA0303362D88BF30BD11F0004F4FEA01314FF4801C4CEA113102D0404261EB410113F0004F4FEA03334CEA133333
:4016C00002D0524263EB430394EA050F00F0A780A4F10104D5F1200E0DDB02FA0EFC22FA05F2801841F1000103FA0EF2801843FA05F359410EE0A5F120050EF1200E012A88
:4017000003FA0EFC28BF4CF0020C43FA05F3C01851EBE37101F0004507D54FF0000EDCF1000C7EEB00006EEB0101B1F5801F1BD3B1F5001F0CD349085FEA30004FEA3C0CB6
:4017400004F101044FEA445212F5800F80F09A80BCF1004F08BF5FEA500C50F1000041EB045141EA050130BD5FEA4C0C404141EB010111F4801FA4F10104E9D191F0000F60
:4017800004BF01460020B1FA81F308BF2033A3F10B03B3F120020CDA0C3208DD02F1140CC2F10C0201FA0CF021FA02F10CE002F11402D8BFC2F1200C01FA02F120FA0CFC01
:4017C000DCBF41EA0C019040E41AA2BF01EB0451294330BD6FEA04041F3C1CDA0C340EDC04F11404C4F1200220FA04F001FA02F340EA030021FA04F345EA030130BDC4F17B
:401800000C04C4F1200220FA02F001FA04F340EA0300294630BD21FA04F0294630BD94F0000F83F4801306BF81F480110134013D4EE77FEA645C18BF7FEA655C29D094EA1E
:40184000050F08BF90EA020F05D054EA000C04BF1946104630BD91EA030F1EBF0021002030BD5FEA545C05D14000494128BF41F0004130BD14F580043CBF01F5801130BD0B
:4018800001F0004545F0FE4141F470014FF0000030BD7FEA645C1ABF194610467FEA655C1CBF0B46024650EA013406BF52EA033591EA030F41F4002130BD00BF90F0000F91
:4018C00004BF0021704730B54FF4806404F132044FF000054FF0000150E700BF90F0000F04BF0021704730B54FF4806404F1320410F0004548BF40424FF000013EE700BF49
:4019000042004FEAE2014FEA31014FEA02701FBF12F07F4393F07F4F81F06051704792F0000F14BF93F07F4F704730B54FF4607401F0004521F0004120E700BF50EA010274
:4019400008BF704730B54FF000050AE050EA010208BF704730B511F0004502D5404261EB41014FF4806404F132045FEA915C3FF4DCAE4FF003025FEADC0C18BF03325FEAFA
:40198000DC0C18BF033202EBDC02C2F1200300FA03FC20FA02F001FA03FE40EA0E0021FA02F11444C1E600BF70B54FF0FF0C4CF4E06C1CEA11541DBF1CEA135594EA0C0F44
:4019C00095EA0C0F00F0DEF82C4481EA030621EA4C5123EA4C5350EA013518BF52EA033541F4801143F4801338D0A0FB02CE4FF00005E1FB02E506F00042E0FB03E54FF050
:401A00000006E1FB03569CF0000F18BF4EF0010EA4F1FF04B6F5007F64F5407404D25FEA4E0E6D4146EB060642EAC62141EA55514FEAC52040EA5E504FEACE2EB4F1FD0CBA
:401A400088BFBCF5E06F1ED8BEF1004F08BF5FEA500E50F1000041EB045170BD06F0004646EA010140EA020081EA0301B4EB5C04C2BFD4EB0C0541EA045170BD41F4801102
:401A80004FF0000E013C00F3AB8014F1360FDEBF002001F0004170BDC4F10004203C35DA0C341BDC04F11404C4F1200500FA05F320FA04F001FA05F240EA020001F0004285
:401AC00021F0004110EBD37021FA04F642EB06015EEA430E08BF20EAD37070BDC4F10C04C4F1200500FA04F320FA05F001FA04F240EA020001F0004110EBD37041F10001D4
:401B00005EEA430E08BF20EAD37070BDC4F1200500FA05F24EEA020E20FA04F301FA05F243EA020321FA04F001F0004121FA04F220EA020000EBD3705EEA430E08BF20EA8D
:401B4000D37070BD94F0000F0FD101F00046400041EB010111F4801F08BF013CF7D041EA060195F0000F18BF704703F00046520043EB030313F4801F08BF013DF7D043EABC
:401B80000603704794EA0C0F0CEA135518BF95EA0C0F0CD050EA410618BF52EA4306D1D181EA030101F000414FF0000070BD50EA410606BF1046194652EA430619D094EAAE
:401BC0000C0F02D150EA013613D195EA0C0F05D152EA03361CBF104619460AD181EA030101F0004141F0FE4141F470014FF0000070BD41F0FE4141F4780170BD70B54FF080
:401C0000FF0C4CF4E06C1CEA11541DBF1CEA135594EA0C0F95EA0C0F00F0A7F8A4EB050481EA030E52EA03354FEA013100F088804FEA03334FF0805545EA131343EA126331
:401C40004FEA022245EA111545EA10654FEA00260EF000419D4208BF964244F1FD0404F5407402D25B084FEA3202B61A65EB03055B084FEA32024FF480104FF4002CB6EB90
:401C8000020E75EB030E22BFB61A754640EA0C005B084FEA3202B6EB020E75EB030E22BFB61A754640EA5C005B084FEA3202B6EB020E75EB030E22BFB61A754640EA9C00F9
:401CC0005B084FEA3202B6EB020E75EB030E22BFB61A754640EADC0055EA060E18D04FEA051545EA16754FEA06164FEAC30343EA52734FEAC2025FEA1C1CC0D111F4801F3F
:401D00000BD141EA00014FF000004FF0004CB6E711F4801F04BF01430020B4F1FD0C88BFBCF5E06F3FF6AFAEB5EB030C04BFB6EB020C5FEA500C50F1000041EB045170BD2D
:401D40000EF0004E4EEA113114EB5C04C2BFD4EB0C0541EA045170BD41F480114FF0000E013C90E645EA060E8DE60CEA135594EA0C0F08BF95EA0C0F3FF43BAF94EA0C0FB6
:401D80000AD150EA01347FF434AF95EA0C0F7FF425AF104619462CE795EA0C0F06D152EA03353FF4FDAE1046194622E750EA410618BF52EA43067FF4C5AE50EA41047FF4A4
:401DC0000DAF52EA43057FF4EBAE12E74A0011D212F5001211D20DD56FF47873B3EB62520ED44FEAC12343F0004343EA505323FA02F070474FF00000704750EA013002D1B4
:401E00004FF0FF3070474FF0000070474FEA4102B2F1E04324BFB3F5001CDCF1FE5C0DD901F0004C4FEAC0024CEA5070B2F1004F40EB830008BF20F00100704711F0804F64
:401E400021D113F13872BCBF01F00040704741F480114FEA5252C2F11802C2F1200C10FA0CF320FA02F018BF40F001004FEAC1234FEAD32303FA0CFC40EA0C0023FA02F35A
:401E80004FEA4303CCE77FEA625307D150EA01331EBF4FF0FE4040F44000704701F0004040F0FE4040F40000704700BF4FF0FF0C1CEAD0521EBF1CEAD15392EA0C0F93EA31
:401EC0000C0F6FD01A4480EA010C400218BF5FEA41211ED04FF0006343EA501043EA5111A0FB01310CF00040B1F5000F3EBF490041EAD3715B0040EA010062F17F02FD2A4F
:401F00001DD8B3F1004F40EBC25008BF20F00100704790F0000F0CF0004C08BF49024CEA502040EA51207F3AC2BFD2F1FF0340EAC250704740F400004FF00003013A5DDCE7
:401F400012F1190FDCBF00F000407047C2F10002410021FA02F1C2F1200200FA02FC5FEA310040F1000053EA4C0308BF20EADC70704792F0000F00F0004C02BF400010F406
:401F8000000F013AF9D040EA0C0093F0000F01F0004C02BF490011F4000F013BF9D041EA0C018FE70CEAD15392EA0C0F18BF93EA0C0F0AD030F0004C18BF31F0004CD8D1E5
:401FC00080EA010000F00040704790F0000F17BF90F0004F084691F0000F91F0004F14D092EA0C0F01D142020FD193EA0C0F03D14B0218BF084608D180EA010000F00040EA
:4020000040F0FE4040F40000704740F0FE4040F4400070474FF0FF0C1CEAD0521EBF1CEAD15392EA0C0F93EA0C0F69D0A2EB030280EA010C49024FEA402037D04FF08053C7
:4020400043EA111143EA10130CF000408B4238BF5B0042F17D024FF4000C8B4224BF5B1A40EA0C00B3EB510F24BFA3EB510340EA5C00B3EB910F24BFA3EB910340EA9C00B8
:40208000B3EBD10F24BFA3EBD10340EADC001B0118BF5FEA1C1CE0D1FD2A3FF650AF8B4240EBC25008BF20F0010070470CF0004C4CEA50207F32C2BFD2F1FF0340EAC2501D
:4020C000704740F400004FF00003013A37E792F0000F00F0004C02BF400010F4000F013AF9D040EA0C0093F0000F01F0004C02BF490011F4000F013BF9D041EA0C0195E799
:402100000CEAD15392EA0C0F08D142027FF47DAF93EA0C0F7FF470AF084676E793EA0C0F04D14B023FF44CAF08466EE730F0004C18BF31F0004CCAD130F000427FF45CAFA7
:4021400031F000437FF43CAF5FE700BF42000ED2B2F1FE4F0BD34FF09E03B3EB126209D44FEA002343F0004323FA02F070474FF00000704712F1610F01D1420202D14FF0B0
:40218000FF3070474FF00000704700BF014B1868704700BF4481FF1F0E4B70B51E460E4C0025E41AA410A54204D056F8253098470135F8E700F060F8084B094C1E46E41AA8
:4021C000A4100025A54204D056F8253098470135F8E770BD8422000084220000842200008C22000010B5431E0A44914204D011F8014B03F8014FF8E710BD0346024493421C
:4022000002D003F8011BFAE7704700000000000020202020202020202020202020202020000000004552504D000000004352504D00000000505100401000F0510040100035
:4022400000000140001000140140000800400140000A004C014000020050014020000000011121314161536373000000080901010507070404430000F8B500BFF8BC08BC61
:402280009E4670474D00000019070000F8B500BFF8BC08BC9E46704729000000B0220000C880FF1F80000000C80000000000000000000000C900CD00FF0000000000E02E4B
:4022C000C05D00001800000000366E01000000000000000000000000000000000000000000000000000000000000000075220000000000000000000000000000000000006D
:402300000000000000000000000000000000000000000000000000000000000000000000000000000000000000000000E480FF1F000000000000000000000000000000001B
:40234000000000000000000000000000000000000000000000000000000000000000000000000000000000000000000000000000000000000000000000000000000000005D
:40238000000000000000000000000000000000000000000000000000000000000000000000000000000000000000000000000000000000000000000000000000000000001D
:4023C00000000000000000000000000000000000000000000000000000000000000000000000000000000000000000000000000000000000000000000000000000000000DD
:40240000000000000000000000000000000000000000000000000000000000000000000000000000000000000000000000000000000000000000000000000000000000009C
:020000040003F7
:0200000480007A
:4000000003520040025B00400264004003650040020101404602014023030140060501400507014004090140040A0140020B0140020D0140290E0140160F014029140140DC
:400040001D1501406C1801403D190140481A0140491B014009400140084101400642014009430140024401400245014007460140044701400548014010490140054C01405C
:400080000B4D0140065001400251014001202101601027842F8483678E0D850D896F8A0F8F40E6404064410149FF4AFF4BFF4DA04F0150185A045F016040628064406540DF
:4000C000668068406A506BA86C406D206E506FA8820C830388018C089101A603AE01B004B102B202B401B608B701BE50BF40C025C103C552C6C0C70EC81FC9FFCAFFCBFFCC
:40010000CDAFCE07CF01D018D280D407D604D804D904DA04DB04DF01E040E280E440E540E680E840EA50EBA8EC40ED20EE50EFA8005002401002130818551B102102224049
:4001400031023B01402446424A104B814F205108525053405A905B045E306108621063807002A740C00BC405CC01CE01D096D228D60ED807EA409C209E029F08A801AB043B
:40018000E620A820AB08AE02EA02EE0DAB20AF20EA02EE01B820BE10D804DF011F20E620B508EA400701120818011E0426072F01300132043301340236083F044010410681
:4001C00045D14702481349FF4AFF4BFF4DA04F04501852805405580459045A045B045C045D445F01604062C06440654066C068C06AC06CC06EC009020A05102019481A45D9
:40020000220429403808420148284901500C59015A487102C20BC404CA08CE02D008D204D60B8A048F0194019A07A701AE08B001B202B408B501B604BF10C020C105C5D113
:40024000C602C807C9FFCAFFCBFFCDA0CF04D018D280D405D804D904DA04DB04DC02DD22DF01E040E2C0E440E540E6C0E8C0EAC0ECC0EEC005100E200F0817801C021D304D
:400280001E601F1027082F103F8045204F8957405E405F0977808401C040C260C480CA40CE10D020D210D6D0E402EC20EE08030F047B05940604076009FD0A800B020C40DC
:4002C0000D730E0F1130127013C9159E1760181C1A221C0C1E4128182A212C772DCF2F3030F0340F35FF3F104036410449FF4AFF4BFF4DA04F015018580459045A045C067E
:400300005D065F016040628064406540668068406A806C406D206E808008820388028C088D089106950699089B10A103A408A505A604A804B002B107B201B310B408B604AC
:40034000B708B820B982BE51C032C104C543C6C2C70EC81FC9FFCAFFCBFFCDAFCE07CF01D018D40FD804D904DA04DB04DC66DD66DF05E040E280E440E540E680E840EA80B0
:40038000EC40ED20EE8002430308062007050D020E080F021020131015201601180819011A041B481D021E081F022202235127042A012B102C012E4030213208360C370155
:4003C0003A403D223E203F644020420443024430450348A04C04510852D059115A805B08610862107A028D108E80C0EBC2D0C4C6CA13CCC7CEF8D0C7D220D60FD806DE08F1
:400400000018020406010A200B080E601001110514201A1E1E011F032010220223042416260828182A022C0E2D04301E31023220330434403508360137013E443F4452805D
:40044000540F580459045B045C665D605F01820184FE851F86018C968D078E68907F9105931A951A970598C59A3A9CA39E5CA320A513A70CA80EAAF0AB40AD1CAF03B1307A
:40048000B50FB6FFB740BE40D804D904DC60DF01004001020204031004080741084809020B050E080F4212A813401520160819A21A601B011F80211222412324244C2510A5
:4004C00026A02741284829202B022C042E482F8030903211360437013A203C043FC0580259805B28728080028220831284048A208E848F489341952096C097049C109F0143
:40050000A080A20CA302A510A701B748C0BFC2DFC44FCAF9CCC9CE54D60FE208E402EC20EE0833223502374039405B108F12CCF0CE10D480302063049D029F40A720B54021
:40054000CC10D840882097049D029F40A420A72094049D02A720A804AB40AF04E820EA40EE807F01DE04B701E802008003011A808840C002C608E6044608AA40AF01D00433
:40058000208094049D02A720C8401A022004630285028601870194049D02AF20B040C640C810D640E440E610EE101F8034019E08C601CC01110117088608870889019E08CC
:4005C000AF80B001C40CE601EC04001108010E1010441A041C4000FF010F00000021210020005E00C010100010000000000B0B0000000000007F7F0000000000002020005B
:4006000020008000000101000100000000000000000020000100180100000000000000000000000000000000000000000000000000000000000000000000000000000000DD
:40064000000000000000000000000000000000000000000000000000000000000000000000000000000000000000000000000000000000000000000000000000000000007A
:40068000000000000000000000000000000000000000000000000000000000000000000000000000000000000000000000000000000000000000000000000000000000003A
:4006C00000000000000000000000000000000000000000000000000000000000000000000000000000000000000000000000000000000000000000000000000000000000FA
:4007000000000000000000000000000000000000000000000000000000000000000000000000000000000000000000000000000000000000000000000000000000000000B9
:0200000490006A
:0400000000004005B7
:0200000490105A
:04000000BC90ACAF55
:0200000490303A
:0200000052812B
:0200000490402A
:4000000000000000000000000000000000000000000000000000000000000000000000000000000000000000000000000000000000000000000000000000000000000000C0
:400040000000000000000000000000000000000000000000000000000000000000000000000000000000000000000000000000000000000000000000000000000000000080
:400080000000000000000000000000000000000000000000000000000000000000000000000000000000000000000000000000000000000000000000000000000000000040
:4000C0000000000000000000000000000000000000000000000000000000000000000000000000000000000000000000000000000000000000000000000000000000000000
:0200000490501A
:0C00000000012E12306900012E2182EA5E
:00000001FF